:100000000C9434010C9451010C9451010C94510145
:100010000C9451010C9451010C9451010C94510118
:100020000C9451010C9451010C9451010C94F80A58
:100030000C9451010C9451010C9451010C945101F8
:100040000C94C0010C9451010C948D0A0C94660A16
:100050000C9451010C947B020C9451010C945101AD
:100060000C9451010C94510100C1814001C08041A8
:1000700001C0804100C1814001C0804100C1814078
:1000800000C1814001C0804101C0804100C1814068
:1000900000C1814001C0804100C1814001C0804158
:1000A00001C0804100C1814001C0804100C1814048
:1000B00000C1814001C0804100C1814001C0804138
:1000C00001C0804100C1814000C1814001C0804128
:1000D00001C0804100C1814001C0804100C1814018
:1000E00000C1814001C0804101C0804100C1814008
:1000F00000C1814001C0804100C1814001C08041F8
:1001000001C0804100C1814000C1814001C08041E7
:1001100001C0804100C1814001C0804100C18140D7
:1001200000C1814001C0804100C1814001C08041C7
:1001300001C0804100C1814001C0804100C18140B7
:1001400000C1814001C0804101C0804100C18140A7
:1001500000C1814001C0804100C1814001C0804197
:1001600001C0804100C1814000C0C101C30302C27F
:10017000C60607C705C5C404CC0C0DCD0FCFCE0EE7
:100180000ACACB0BC90908C8D81819D91BDBDA1A57
:100190001EDEDF1FDD1D1CDC14D4D515D71716D6C7
:1001A000D21213D311D1D010F03031F133F3F23237
:1001B00036F6F737F53534F43CFCFD3DFF3F3EFEA7
:1001C000FA3A3BFB39F9F83828E8E929EB2B2AEA17
:1001D000EE2E2FEF2DEDEC2CE42425E527E7E62687
:1001E00022E2E323E12120E0A06061A163A3A262F7
:1001F00066A6A767A56564A46CACAD6DAF6F6EAE67
:10020000AA6A6BAB69A9A86878B8B979BB7B7ABAD6
:10021000BE7E7FBF7DBDBC7CB47475B577B7B67646
:1002200072B2B373B17170B05090915193535292B6
:1002300096565797559594549C5C5D9D5F9F9E5E26
:100240005A9A9B5B99595898884849894B8B8A4A96
:100250004E8E8F4F8D4D4C8C448485458747468606
:10026000824243834181804011241FBECFEFD4E0FE
:10027000DEBFCDBF11E0A0E0B1E0E0EEF6E102C0EC
:1002800005900D92AC33B107D9F712E0ACE3B1E0C1
:1002900001C01D92A63BB107E1F70E9422030C9416
:1002A0006E0B0C94000080EF86BD85B5856085BD22
:1002B0000895DC01CA01860F971F069710F087E0AA
:1002C00008952223E9F4FB01EE0FFF1FEF5BFE4FC1
:1002D0000AC0908181818C9311969C9311971296FC
:1002E0004150504032964115510599F711C0119671
:1002F0008C9111978083118212964150504005C015
:10030000FB01EE0FFF1FEF5BFE4F4115510579F723
:1003100080E0089581E0089581E00895EF92FF92D2
:100320000F931F93CF93DF938C017B01EA01CA01E6
:10033000860F971F069710F087E01BC080E090E0C3
:100340000E9491038093450110924601F701EE0F40
:10035000FF1FEF5BFE4F0AC08181D8018C93808123
:1003600011968C930E5F1F4F219732962097A1F71D
:1003700080E0DF91CF911F910F91FF90EF90089552
:100380001F920F920FB60F9211242F933F934F930A
:100390005F936F937F938F939F93AF93BF93EF93ED
:1003A000FF9380EF86BD80E090E00E949103682F6C
:1003B00070E07093460160934501209141013091B6
:1003C000420180914301909144018217930738F5CF
:1003D0002530310570F480916E008E7F80936E0021
:1003E0006B7F709346016093450180E090E00E942E
:1003F000890380913D01883010F010923D018BB14E
:100400008F708BB92BB190913D01E92FF0E0E05056
:10041000FF4F8081282B2BB99F5F90933D01209146
:10042000410130914201809143019091440128178C
:10043000390760F52536310590F080916E008E7F8A
:1004400080936E0060914501709146016B7F7093BF
:1004500046016093450180E090E00E94890380910D
:100460003D01882319F488E080933D018BB18F70A2
:100470008BB92BB190913D01E92FF0E0E050FF4F97
:100480008081282B2BB9915090933D0140914101DF
:10049000509142012091430130914401CA010596D7
:1004A00028173907B8F42B5F3F4F4217530790F4D2
:1004B00080916E008E7F80936E00609145017091F7
:1004C00046016B7F709346016093450180E090E0A8
:1004D0000E948903FF91EF91BF91AF919F918F91FE
:1004E0007F916F915F914F913F912F910F900FBE30
:1004F0000F901F9018951F920F920FB60F92112414
:100500002F933F934F935F936F937F938F939F931B
:10051000AF93BF93EF93FF9380913C018130E9F05B
:10052000813020F0823009F07CC049C080913E01CA
:1005300090917900E82FF0E0E457FE4F90838F5FB1
:1005400080933E01803211F410923E0180917C0034
:10055000816080937C0081E02FC08091790080933E
:1005600047011092480180E090E00E949103682FBB
:1005700070E070934601609345018091470190912E
:1005800048018738910558F461FD09C06260709395
:1005900046016093450180E090E00E9489038091CC
:1005A0007C00826080937C0080917C008E7F8093B1
:1005B0007C0080913C018F5F80933C012DC0809135
:1005C00079008093490110924A0180E090E00E94F6
:1005D0009103682F70E0709346016093450180910C
:1005E000490190914A014F9780F060FD0EC08091C3
:1005F0006E008E7F80936E00616070934601609301
:10060000450180E090E00E94890380917C008D7F0D
:1006100080937C0010923C0180917A0080648093EA
:100620007A00FF91EF91BF91AF919F918F917F9150
:100630006F915F914F913F912F910F900FBE0F904F
:100640001F901895EF920F931F930E941F0B0E940B
:100650007E0380EF86BD85B5856085BD529A80E0BA
:1006600061E040E000E016E920E030E052E0E52EF5
:100670000E94A50484E361E048E051E023E030E01B
:100680000E94D60778940E94EF030E94120420E093
:1006900030E090E008C0E92FF0E0E457FE4F8081A1
:1006A000280F311D9F5F9032B0F390933F0145E0DA
:1006B000369527954A95E1F7309342012093410101
:1006C00080E090E00E9491036091450170914601A5
:1006D00090E08617970721F080E090E00E94890360
:1006E0008091450182FF04C080916E00816003C04B
:1006F00080916E008E7F80936E00C7CF80E68093DE
:100700007C00EAE7F0E08FE880838081806480836A
:100710000895F999FECF92BD81BD60BDFA9AF99A0C
:100720000895F999FECF92BD81BDF89A80B50895DC
:10073000482F181614F082E00895F8946115710599
:10074000F9F0EDE0F1E080E090E0208131812115C9
:10075000310519F02617370769F4FC01EE0FFF1F6A
:10076000E80FF91FE45FFE4F408372836183409777
:1007700011F51FC0019633968031910531F719C0EC
:10078000ECE0F1E020E030E08081841759F4F901D9
:10079000EE0FFF1FE20FF31FE45FFE4F1082128285
:1007A000118209C02F5F3F4F33962031310561F729
:1007B00002C084E001C080E07894089580910B012C
:1007C000813011F086E00895E0915C01F0915D01C7
:1007D000309711F480E00895099580E008958091A4
:1007E0000B01813011F086E00895E0915601F091FF
:1007F0005701099510920B0180E0089580910B013B
:10080000882351F4E0915801F0915901099581E054
:1008100080930B0180E00895813011F086E0089507
:1008200080E00895DF93CF930F92CDB7DEB780912C
:100830000B01882311F086E084C0CE0101960E944E
:10084000F409813009F07CC09981923009F193302C
:1008500009F471C0913009F073C0E0915A01F09130
:100860005B018FE491E060E571E04CE451E00995B3
:10087000882309F065C090914F018091520198172B
:1008800019F0992309F05CC082E00E94ED0958C07C
:10089000A0915001B09151013C9130934E01809351
:1008A0004B01ECE0F1E080E090E020812223C1F0F8
:1008B000231789F4FC01EE0FFF1FE80FF91FE45F17
:1008C000FE4F0180F281E02DCD016CE471E00995CD
:1008D00080934B0105C0019633968031910529F72D
:1008E00080914F01882361F190914B01992399F0F8
:1008F000E0915001F091510180914E018068808318
:10090000E0915001F0915101918382E090E0909349
:100910004D0180934C0160915001709151014091C3
:100920004C0150914D01E0915401F091550180919D
:100930005201099505C08CE192E00197F1F75A98B0
:1009400080E00F90CF91DF910895EF920F931F9366
:10095000982F862F8150873F08F049C0609352013D
:10096000992309F044C08AEA98E090935701809354
:1009700056018DE198E0909359018093580185EBE1
:1009800098E090935501809354018BE099E0909307
:100990005B0180935A0110925D0110925C0181E627
:1009A00098E09093B1018093B00186E298E0909333
:1009B000AD018093AC0186E098E09093AF01809305
:1009C000AE01862F642FA90198010E2D0E944009C7
:1009D000182F882369F40E94E909882311F413E091
:1009E00007C01092530181E080930B0101C012E017
:1009F000812F1F910F91EF900895DC013FEF2FEFB2
:100A000011C08D91422F482750E0CA0188599F4F4D
:100A1000FC012491232748595E4FFA0184916150CB
:100A20007040382F6115710561F7932F80E030E039
:100A3000282B392BC9010895CF93DF93FC01EB01DB
:100A4000888199810697C0F1A181B281938180E06C
:100A50002481422F50E0482B592B3581CA018770E1
:100A60009070BA0123E0769567952A95E1F7892B76
:100A700019F0262F2F5F01C0262FCA010197805B36
:100A80009740D0F42317C1F47A2F60E08B2F90E0C9
:100A9000682B792B6F5F7F4FCF01069621E00E9474
:100AA0008A01882319F00E94DA0907C085E090E0E6
:100AB0009983888380E001C083E0DF91CF9108951E
:100AC000DF93CF9300D0CDB7DEB7DC01FB0180818F
:100AD0009181059761F511962C91119712963C9191
:100AE000129714968C911497882309F513969C916C
:100AF000892F81508E3FD8F01A829F3F19F481E0F0
:100B0000898301C01982722F60E0832F90E0682BE7
:100B1000792B6F5F7F4FCE01019641E050E021E0DD
:100B20000E948A01882321F00E94DA0901C083E033
:100B30000F900F90CF91DF9108950F931F93CF9354
:100B4000DF93FC01EB0188819981059709F047C08B
:100B50000181DF0112963281938180E02481422F4E
:100B600050E0482B592BCA0101978F5C9740B8F58C
:100B70001982188281E08083888199810196998306
:100B80008883CA0187709070BA0113E076956795E3
:100B90001A95E1F7892B19F0162F1F5F01C0162F48
:100BA000118388819981019699838883702F60E0F1
:100BB000832F90E0682B792B6F5F7F4FCD0120E072
:100BC0000E948A01882319F00E94DA0909C08881ED
:100BD0009981810F911D9983888380E001C083E012
:100BE000DF91CF911F910F9108950F931F93CF9392
:100BF000DF93FC01EB0188819981059709F046C0DC
:100C00000181DF0112963281938180E02481422F9D
:100C100050E0482B592BCA0101978F5C9740B0F5E3
:100C20001982188282E08083888199810196998354
:100C30008883CA0187709070BA0123E07695679522
:100C40002A95E1F7892B19F0162F1F5F01C0162F87
:100C5000118388819981019699838883702F60E040
:100C6000832F90E0682B792B6F5F7F4FCD010E941F
:100C70008C01882319F00E94DA0909C088819981C2
:100C8000810F911D9983888380E001C083E0DF910B
:100C9000CF911F910F9108958F929F92AF92BF9223
:100CA000CF92DF92EF92FF920F931F93CF93DF9338
:100CB000EC018B01FB01808191810A9708F463C0EC
:100CC000898022E0A22EB12CAC0EBD1E9A809B81A1
:100CD00080E02C81E22EFF24E82AF92AED81FE81B2
:100CE0006F8128857985C70101978D37910508F0B7
:100CF0004FC0962F80E0422F50E0482B592B4115D2
:100D0000510509F445C04A37510508F041C09A0120
:100D1000220F331F872F90E028173907C9F57E2F40
:100D200060E08F2F90E0682B792BCE010A9621E0AE
:100D30000E945901882349F5F8011182108287E148
:100D40008883808191810196918380836701CC0C97
:100D5000DD1CC98280819181019691838083782DE9
:100D600060E0892D90E0682B792BC501A70120E078
:100D70000E945901882349F4F801808191818C0DEA
:100D80009D1D9183808380E004C00E94DA0901C028
:100D900083E0DF91CF911F910F91FF90EF90DF9053
:100DA000CF90BF90AF909F908F9008950F931F9317
:100DB000CF93DF93FC01EB01888199810597B1F511
:100DC000B1819F012E5F3F4FA2818481482F50E067
:100DD000CA0101978D37910548F51982188283E081
:100DE0008083888199810196998388838A01000F85
:100DF000111F0183888199810196998388837B2FB4
:100E000060E08A2F90E0682B792BC90120E00E94D6
:100E10005901882319F00E94DA0909C08881998153
:100E2000800F911F9983888380E001C083E0DF9168
:100E3000CF911F910F910895CF93DF93FC01EB01A8
:100E400088819981069750F13181A281938180E058
:100E50002481422F50E0482B592B2581CA0101974C
:100E600088379105D8F4CA01880F991F2817B1F463
:100E7000732F60E08A2F90E0682B792BCF010696C4
:100E800021E00E945901882319F00E94DA0907C065
:100E900085E090E09983888380E001C083E0DF9162
:100EA000CF910895DC01FB0180819181059711F0BC
:100EB00083E0089511967C91119760E012968C91D1
:100EC000129790E0682B792BCD01039641E050E01A
:100ED00021E00E945901882311F00E94DA09089547
:100EE000FF920F931F93CF93DF93FC01EB01888157
:100EF00099810597C1F5F180DF01129632819381C6
:100F000080E02481422F50E0482B592BCA010197E1
:100F10008C37910540F51982188284E0808388819E
:100F200099810196998388838A01000F111F01839B
:100F3000888199810196998388837F2D60E0832F32
:100F400090E0682B792BCD010E948E01882319F047
:100F50000E94DA0909C088819981800F911F9983C5
:100F6000888380E001C083E0DF91CF911F910F91D2
:100F7000FF9008950F931F938B019C012F5F3F4FAC
:100F8000EEE5F1E040917E0150917F01C901BF0182
:100F90000E94650B80917E0190917F010196F8017E
:100FA0009183808380E01F910F910895CF93DF9309
:100FB000E82FE901C9010296809710F084E023C070
:100FC000E0935E01662311F480E001C08FEF80930F
:100FD0005F0182E090E090937F0180937E012097F3
:100FE00089F020E631E0C901BA01AE010E94650B2B
:100FF00080917E0190917F018C0F9D1F90937F01C6
:1010000080937E0180E0DF91CF9108951F938091BE
:101010008101882321F0823021F010E006C080E0B9
:1010200001C081E00E94ED09182F0E94CE0A81E0E4
:1010300080938101812F1F910895F89480E060E0F2
:101040000E94000A0E94CE0A789408951F9380910E
:101050008001882319F0813029F406C081E060E026
:101060000E94000A10E02AC08091840190918501BD
:101070000197D1F0E0918201F091830180810E947B
:101080005B0A809182019091830101969093830184
:1010900080938201809184019091850101979093C2
:1010A000850180938401DECF83E00E94ED09182F33
:1010B00081E060E00E94000A10928001812F1F9160
:1010C0000895DF93CF930F92CDB7DEB7CE0101968F
:1010D0000E94600A80918101813039F0813098F15D
:1010E0008230B9F0833089F52EC0109287011092BA
:1010F000860180918601909187012981FC01EA5443
:10110000FE4F20830196909387018093860182E0B1
:1011100018C080918601909187018F3F910509F059
:1011200078F480918601909187012981FC01EA542D
:10113000FE4F20830196909387018093860103C020
:1011400083E0809381010E94B40A80E00F90CF91E8
:10115000DF910895F8941092810181E060E00E948F
:10116000000A0E94B40A789408951F93282FF894D7
:1011700010918101113011F085E04AC0FB013197D7
:10118000F0938301E093820181E090E090938501E8
:101190008093840120838091840190918501840F44
:1011A000951F9093850180938401609184017091D3
:1011B0008501CF010E94FD042091840130918501B9
:1011C000F901EA54FE4F80832F5F3F4F3093850132
:1011D000209384012091840130918501F901EA5422
:1011E000FE4F90832F5F3F4F309385012093840102
:1011F000809184019091850101969093850180935F
:1012000084011093800180E061E00E94000A80E088
:1012100078941F910895EF92FF920F931F93CF93AD
:10122000DF93EC017B018A01F89480918601909113
:1012300087010497E0F0609186017091870186EB49
:1012400091E00E94FD04892B91F48091B60188837E
:1012500080918601909187010397F80191838083A3
:1012600087EB91E0F7019183808380E001C085E006
:101270007894DF91CF911F910F91FF90EF90089597
:10128000CF92DF92EF92FF920F93862F69017A013E
:10129000F894BA01A90128E00E941C0A813009F5DE
:1012A00081E0C8168BE4D80680E0E80680E0F80606
:1012B00028F083E290E0A0E0B0E00DC0CC0CDD1C93
:1012C000EE1CFF1C60EA7FE787E190E0A701960132
:1012D0000E94430BC9010E94DA0A813011F480E0B8
:1012E00001C083E078940F91FF90EF90DF90CF9052
:1012F00008950F931F93CF93DF9330E0DB0153E00A
:10130000B695A7955A95E1F767707070E1E0F0E047
:1013100002C0EE0FFF1F4A95E2F731978C010A0FCA
:101320001B1FE801488150E01196A80FB91F9C913E
:1013300080E0482B592B062E02C0EE0FFF1F0A94A7
:10134000E2F7E095F0954E235F2302C0220F331F92
:101350006A95E2F7422B532B48835C93DF91CF9140
:101360001F910F910895FB01B3E0F695E795BA95AB
:10137000E1F7DC01AE0FBF1F2C9130E011969C917C
:1013800080E0822B932BA3E0EE0FFF1FAA95E1F7DD
:101390006E1B7F0B02C0969587956A95E2F721E058
:1013A00030E002C0220F331F4A95E2F7215030404F
:1013B00082230895813029F0813028F0873039F474
:1013C00004C082E0089580E0089586E0089584E0F6
:1013D00008951092890181E0089591E09093890128
:1013E0008093880181E00895FC0180918901882320
:1013F00031F08091880180831092890181E0089505
:101400009091C10098609093C100882321F0809151
:10141000C100806903C08091C1008F768093C100B4
:10142000662321F08091C100886203C08091C100D1
:101430008F7D8093C1000895CF92DF92EF92FF924B
:101440000F931F936A017B01122F84E0CC0CDD1CEB
:10145000EE1CFF1C8A95D1F760E072E18AE790E00C
:10146000A70196010E94430B215030403093C500E4
:101470002093C400013031F0023011F490E203C037
:1014800090E001C090E3173021F0183019F4966015
:1014900001C094608091C200982B9093C20081E0BB
:1014A00061E00E94000A81E01F910F91FF90EF9090
:1014B000DF90CF9008955A9A8093C60081E00895F6
:1014C000FC018091C600808381E008951F920F92F5
:1014D0000FB60F9211242F933F934F935F936F9307
:1014E0007F938F939F93AF93BF93EF93FF93E0917D
:1014F000AC01F091AD010995FF91EF91BF91AF91D2
:101500009F918F917F916F915F914F913F912F911B
:101510000F900FBE0F901F9018951F920F920FB64D
:101520000F9211242F933F934F935F936F937F9369
:101530008F939F93AF93BF93EF93FF93E091B0018D
:10154000F091B1010995FF91EF91BF91AF919F91FA
:101550008F917F916F915F914F913F912F910F905C
:101560000FBE0F901F901895109285001092840066
:1015700020918A0130918B012115310549F080912C
:101580006F00826080936F00309389002093880001
:10159000809181008560809381000895E1E8F0E00A
:1015A00080818A7F8083EFE6F0E080818D7F808379
:1015B000B19A0895A0E0B0E0BC01CD0124E83EE17D
:1015C00040E050E00E94240B20E23EE440E050E086
:1015D0000E94430B30938B0120938A01109280006C
:1015E00010928100109282000E94CE0A81E008953C
:1015F0001F920F920FB60F9211242F933F934F9388
:101600005F936F937F938F939F93AF93BF93EF936A
:10161000FF93E091AE01F091AF010995FF91EF9139
:10162000BF91AF919F918F917F916F915F914F91FA
:101630003F912F910F900FBE0F901F9018951BB8E0
:101640008AB1806F8AB90895629FD001739FF001BB
:10165000829FE00DF11D649FE00DF11D929FF00D42
:10166000839FF00D749FF00D659FF00D9927729F79
:10167000B00DE11DF91F639FB00DE11DF91FBD0104
:10168000CF0111240895A1E21A2EAA1BBB1BFD0154
:101690000DC0AA1FBB1FEE1FFF1FA217B307E40751
:1016A000F50720F0A21BB30BE40BF50B661F771FA9
:1016B000881F991F1A9469F7609570958095909589
:1016C0009B01AC01BD01CF010895FB01DC0102C00B
:1016D00001900D9241505040D8F70895F894FFCFF3
:1016E0001030206040C08090AABBCC0211BA070421
:1016F000700703D606101C07065207174C06019DFB
:10170000050560050F1C0502F5050000000000003E
:0C171000000000000000000000000000CD
:00000001FF
