:1000000019C033C032C031C030C02FC02EC02DC087
:100010002CC062C42AC089C428C035C426C025C0EB
:1000200009C423C0E3C021C00CC1DEC51EC01DC071
:100030001CC01BC011241FBECFEFD4E0DEBFCDBF5C
:1000400011E0A0E0B1E0E6E1F8E102C005900D9218
:10005000A832B107D9F713E0A8E2B1E001C01D92C0
:10006000A031B107E1F702D0D4CBCACFEF92FF9213
:100070000F931F93DF93CF9300D0CDB7DEB72EE061
:1000800088E190E00FB6F894A895809360000FBEC9
:100090002093600083E084B986E087B980E88AB95C
:1000A0008CE78BB988E088B964D044D178D383D306
:1000B000ABD338D57FD880EE91E093D08EE692E036
:1000C0005FD382E094E013D18DEF93E015D180E00F
:1000D00094E017D181EE94E019D182ED94E01BD128
:1000E0008AE595E01DD18CEE94E01FD185E099E082
:1000F0004CD381E045D1789480E091E0D4D06ED0AB
:1001000086E0898387E08A83CE01019662E053D539
:100110004ED801E311E08DE1E82E81E0F82EA8959C
:1001200014D869D44D99FBCF8091A8018230B8F3DF
:100130001092A80186E003D500D000D000D0EDB722
:10014000FEB73196ADB7BEB712961C930E931197BA
:10015000F382E2829583848396D88DB79EB7069604
:100160000FB6F8949EBF0FBE8DBFC8019CD036D08D
:10017000D6CF5F988FE08093C4001092C50086E2CE
:100180008093C20080E48093C000E1ECF0E080EC5A
:1001900080838081886180830895282F5F9A88E119
:1001A0008A95F1F720935301909354017093520173
:1001B000609351018091C00085FFFCCFE22FF92FA1
:1001C00081918093C600F0935401E0935301089508
:1001D0008BB18095881F8827881F08955F99FECF6F
:1001E0000895909329018093280108951F920F92FA
:1001F0000FB60F9211242F933F934F935F936F93FA
:100200007F938F939F93AF93BF93EF93FF938091CF
:10021000C600E0912801F0912901309709F0099575
:10022000FF91EF91BF91AF919F918F917F916F91CE
:100230005F914F913F912F910F900FBE0F901F90A4
:1002400018951F920F920FB60F9211248F939F93C0
:10025000EF93FF93809151019091520101979093F8
:100260005201809351018091510190915201892B4B
:1002700061F0E0915301F091540181918093C600A7
:10028000F0935401E093530105C081EE92E0019791
:10029000F1F75F98FF91EF919F918F910F900FBEB3
:1002A0000F901F901895282F5F9A88E18A95F1F793
:1002B0002093530190935401A22FB92FFD01019077
:1002C0000020E9F73197EA1BFB0BF0935201E09312
:1002D00051018091C00085FFFCCFE22FF92F819161
:1002E0008093C600F0935401E093530108959093D6
:1002F000A4018093A30108959093A2018093A1018A
:1003000008959093970180939601089590939D018D
:1003100080939C010895909399018093980108958A
:100320009093A7018093A601089590939B018093D9
:100330009A0108951092A4011092A3011092A201B3
:100340001092A101109297011092960110929D01B6
:1003500010929C011092A7011092A60110929B018D
:1003600010929A011092A50110929E018FEF9FEFBB
:100370009093A00180939F0181E08093550108959F
:1003800080939E010895282F30E080919F019091E5
:10039000A0012827392740E061E070EAC90196955D
:1003A000879520FF04C09C012627372701C09C01A8
:1003B0004F5F483099F73093A00120939F01089533
:1003C0001F93182FE091A301F091A401309709F039
:1003D000099580915501882311F1812FD4DF8091F7
:1003E000A5018034E0F4882381F4E091A101F0912B
:1003F000A201309709F00995112339F080919E01EF
:10040000181719F0109255010AC08091A501E82F24
:10041000F0E0EA5AFE4F10838F5F8093A5011F9191
:10042000089581E0CDDF83E0CBDF80E0C9DF80E0AD
:10043000C7DF80E0C5DF80E1C3DF84E4C1DF86E0A1
:10044000BFDF08956091A50186E591E070E0A5DE2B
:100450000895EF92FF920F931F93CF93DF93BC0108
:1004600080915601882319F18FEF9FEF9093A0019F
:1004700080939F01EB012296E6E5F1E07F01EC0E0F
:10048000FD1E03C080817FDFF8018F010F5F1F4FCA
:10049000EE15FF05B9F780919F019091A00180832F
:1004A000F8019083229686E591E0BE0176DEDF9129
:1004B000CF911F910F91FF90EF900895982F809109
:1004C0005601882351F0809157018068809357012D
:1004D0009093580181E090E0BCDF08959F92AF9225
:1004E000BF92CF92DF92EF92FF920F931F93CF9321
:1004F000DF93E0919601F0919701309709F009950B
:100500001092550180919F019091A001892BA9F033
:100510008FEF9FEF9093A00180939F011092A50110
:1005200081E08093550180912C0190912D010196DD
:1005300090932D0180932C0117C180912A019091F5
:100540002B01019690932B0180932A018CE291E07C
:1005500020E731E0F9013197F1F70197D9F7909150
:1005600057018091A501883009F0EAC0963029F43E
:10057000E0919C01F0919D0154C0933009F04BC073
:100580008091980190919901892B09F4D9C000912B
:1005900059014091580190915A0180E020915B01EE
:1005A00030E0282B392BC9010197409708F0C6C0CD
:1005B000942F80E0402F50E0482B592BC901840F25
:1005C000951F419708F0B8C04031510508F0B2C0FE
:1005D000822F90E0880F991F80935801C9E5D1E0E0
:1005E000EE24FF2411C08A010F5F1F4FE091980194
:1005F000F0919901CA010995988322E030E0E20E5A
:10060000F31E89832296A8018091580190E0E81694
:10061000F90648F3A6C09530F9F4E091A601F091EF
:10062000A701309709F48CC09091580180E0409167
:10063000590150E070915A0160E020915B0130E077
:10064000622B732B842B952B09956091A50186E570
:1006500091E070E0A2DD76C0913009F071C0809128
:100660009A0190919B01892B09F46AC0409159012C
:100670003091580190915A0180E020915B01E22E67
:10068000FF24E82AF92AC7010197089708F056C005
:10069000932F80E0A42EBB24A82AB92AC7018A0D73
:1006A0009B1D099708F048C038E0A316B10408F074
:1006B00041C0C70153E0969587955A95E1F7282FD9
:1006C00080935801C70187709070892B19F02F5FB4
:1006D000209358011092590141E0C42ED12C00E022
:1006E00010E0992423C0E601C85ADE4F8881880FA4
:1006F0008883E0919A01F0919B01C8018A0D9B1DAE
:10070000099580509F4F19F488818160888337E074
:10071000931611F0939408C00894C11CD11CF601E3
:10072000E85AFE4F108299240F5F1F4F0E151F05C8
:10073000D0F214C084E005C082E003C083E001C0B1
:1007400081E0BCDE8FEF9FEF9093A00180939F012B
:100750001092A50181E08093550106C08091580157
:1007600090E0019676DEEECFDF91CF911F910F9151
:10077000FF90EF90DF90CF90BF90AF909F90089543
:100780009093AE018093AD0108959093AA01809358
:10079000A90108959093AC018093AB010895109244
:1007A000AE011092AD0114BC15BCEEE6F0E0808104
:1007B0008160808308951092AA011092A90110927D
:1007C00080001092810080E09AE5909389008093E8
:1007D0008800EFE6F0E080818260808308951092C7
:1007E000AC011092AB011092B0001092B100E0E7A2
:1007F000F0E0808181608083089584E085BD089564
:1008000015BC089516BC08958BE08093810008956F
:10081000109281000895109285001092840008952E
:1008200087E08093B10008951092B100089510926E
:10083000B20008951F920F920FB60F9211242F93BA
:100840003F934F935F936F937F938F939F93AF9358
:10085000BF93EF93FF93E091AD01F091AE0130971C
:1008600009F00995FF91EF91BF91AF919F918F9101
:100870007F916F915F914F913F912F910F900FBE9C
:100880000F901F9018951F920F920FB60F92112480
:100890002F933F934F935F936F937F938F939F9388
:1008A000AF93BF93EF93FF93E091A901F091AA0159
:1008B000309709F00995FF91EF91BF91AF919F910A
:1008C0008F917F916F915F914F913F912F910F90F9
:1008D0000FBE0F901F9018951F920F920FB60F9298
:1008E00011242F933F934F935F936F937F938F9335
:1008F0009F93AF93BF93EF93FF93E091AB01F09180
:10090000AC01309709F00995FF91EF91BF91AF913C
:100910009F918F917F916F915F914F913F912F9117
:100920000F900FBE0F901F9018951F920F920FB649
:100930000F9211242F933F934F935F936F937F9365
:100940008F939F93AF93BF93EF93FF938091A801F1
:100950008F5F8093A801E091A901F091AA013097DF
:1009600009F00995FF91EF91BF91AF919F918F9100
:100970007F916F915F914F913F912F910F900FBE9B
:100980000F901F9018958091BD019091BE019C7FA2
:1009900092609093BE018093BD011092B0011092BD
:1009A000AF010895FC018031910518F020E030E09E
:1009B00006C0EE0FFF1FE155FE4F20813181C901B6
:1009C0000895FC018031910530F4EE0FFF1FE155D1
:1009D000FE4F718360830895FC018830910518F003
:1009E0002FEF30E006C0EE0FFF1FE153FE4F2081D6
:1009F0003181C90108951F9389B190E0969587953B
:100A00009695879581709070339982604B99846038
:100A10004C9988604E9980614D9980629093B001A5
:100A20008093AF0180E029D39093B4018093B30108
:100A300081E023D39093B6018093B50186E07FD007
:100A40009093B8018093B70187E079D09093BA0171
:100A50008093B9011091BD01812F8071B9D3BED3AC
:100A6000882331F114FF10C012FF03C0339920C056
:100A700004C013FF1DC0339B1BC0A8D38091BD01D0
:100A80009091BE01936010C010FF03C04A9910C03E
:100A900004C011FF0DC04A9B0BC098D38091BD01CB
:100AA0009091BE019C7F92609093BE018093BD01A6
:100AB0001F91089588309105A0F52FEF60307207DF
:100AC00019F06115710569F5FC01EE0FFF1FE15387
:100AD000FE4F718360838130910581F081309105F3
:100AE00018F00297F1F418C0672B31F08091BB0128
:100AF0009091BC0165D3089569D30895672B51F097
:100B00006091C1017091C2018091BF019091C001BB
:100B100068D3089574D30895672B11F0429A08950D
:100B20004298089510927B001092E3011092E20126
:100B300008951092E30180E180937A00089588304F
:100B400018F020E030E01BC090E025E0880F991FEE
:100B50002A95E1F7FC01E451FE4F40E050E09C0192
:100B6000245F3D4F81919191480F591FE217F30780
:100B7000C9F79A0184E0369527958A95E1F7C9016E
:100B800008958091E2019091E1018F5F8093E201ED
:100B90008150981710F41092E2018091E201E091E7
:100BA000DF01F091E001E80FF11DE081E83010F481
:100BB000E0937C0008950F931F930AE710E020E173
:100BC000F80120839093E0018093DF016093E101BD
:100BD0001092E201D6DF8FE9F80180838081806482
:100BE00080831F910F9108951F920F920FB60F925D
:100BF00011242F933F934F935F936F937F938F9322
:100C00009F93AF93BF93EF93FF93E0917C00F0E04D
:100C1000DF01AC51BE4F8C9120917800309179006A
:100C200054E0EE0FFF1F5A95E1F7E80FF11DEE0FAC
:100C3000FF1FE451FE4F318320838F5F8C938031FF
:100C400011F41C929EDF80917A00806480937A0078
:100C5000FF91EF91BF91AF919F918F917F916F9194
:100C60005F914F913F912F910F900FBE0F901F906A
:100C70001895982FFB012F3F31F420E005C08081AB
:100C8000891729F038962F5F2417C8F32FEF822F8A
:100C90000895FF920F931F93F82E10E000E0169531
:100CA0008F2D4ED1811110680F5F0830C1F7812F51
:100CB0001F910F91FF900895FF920F931F93082F9C
:100CC000F62E10E000FF03C08F2D0AD102C08F2D39
:100CD0001FD11F5F183011F00695F4CF1F910F91AF
:100CE000FF9008950F931F93CF93DF93EC01062F8E
:100CF00085E5E2DF18E08991602FDEDF1150D9F73A
:100D0000DF91CF911F910F9108950F931F93CF9370
:100D1000DF93EC01062F83E3CFDF18E0802FB9DFEC
:100D200089931150D9F7DF91CF911F910F910895B9
:100D3000682F8CECC1DF0895AF92BF92DF92EF92E3
:100D4000FF920F931F93DF93CF930F92CDB7DEB730
:100D50005C01D62EF42E80EF642FAEDF11E0EE247E
:100D600001E08F2DEDD089838F2DEAD099819923D1
:100D700029F0882371F0EE24EA942DC0882339F0FD
:100D8000902F9095F50180818923808312C01D15D5
:100D900021F4F5018081802BF8CFF5019081D116E7
:100DA00028F4802F80959823908302C0902309F423
:100DB000E12EF5018081802319F08F2D91D002C0A2
:100DC0008F2DA6D01F5F000F21F40894A11CB11C29
:100DD00001E0113431F68E2D0F90CF91DF911F91EC
:100DE0000F91FF90EF90DF90BF90AF9008959F928A
:100DF000AF92BF92CF92DF92EF92FF920F931F9329
:100E0000CF93DF93EC01942E59017C019C0140E0CB
:100E10000BC0F901E80FF91F108201968830910587
:100E2000C1F74F5F285F3F4F461718F480E090E00E
:100E3000F0CF8E015C2F4D2FDD24CC24D801252F3F
:100E4000342FC901FC0188E001900D928150E1F737
:100E5000892D94D0882311F40FEF29C0C8016D2D7E
:100E6000492D6ADFD82EC394882369F08C2D90E039
:100E700023E0880F991F2A95E1F78C0F9D1F502FB3
:100E8000412F8C01DBCF10E000E00FC0C701BFD0C5
:100E9000882311F001E004C0F50180818F5F808319
:100EA0001F5F88E090E0E80EF91E1C1578F3802F94
:100EB000DF91CF911F910F91FF90EF90DF90CF9036
:100EC000BF90AF909F90089594B18095982394B966
:100ED00095B1982395B981E497E00197F1F70895CA
:100EE0002FB7F89494B1982B94B995B18095982325
:100EF00095B998E19A95F1F794B1982394B995B181
:100F0000892385B983EF90E00197F1F72FBF08950A
:100F10002FB7F89494B1982B94B995B180959823F4
:100F200095B9E4EEF0E03197F1F794B1982394B9D4
:100F300095B1892385B98CE28A95F1F72FBF089581
:100F40003FB7F89494B1982B94B995B1282F209578
:100F5000922395B998E19A95F1F794B1922394B9B7
:100F600095B1292325B997E29A95F1F793B1EEEC63
:100F7000F0E03197F1F73FBF892308953FB7F89428
:100F800094B1982B94B995B1282F2095922395B9B7
:100F9000E1E4F7E03197F1F794B1922394B995B178
:100FA000292325B9E9E0F1E03197F1F793B1E1E3C5
:100FB000F6E03197F1F73FBF909589230895282FE8
:100FC00098E038E1862F822780FD02C0669503C035
:100FD000632766956068915011F02695F3CF862FB0
:100FE0000895282F98E042E050E4822F862780FD64
:100FF00003C07695679505C0642775277695679534
:101000007068915011F02695F0CFCB010895EF92C2
:10101000FF921F93CF93DF937C01EC0110E060E01F
:101020008991CDDF682F1F5F1730D1F790E0F7016E
:101030008781681391E0892FDF91CF911F91FF90F5
:10104000EF900895EF92FF921F93CF93DF937C016F
:10105000EC0110E060E08991B2DF682F1F5F18306B
:10106000D1F790E0F7018085681391E0892FDF9137
:10107000CF911F91FF90EF900895823018F0E0E03B
:10108000F0E009C0E82FF0E0EE0FFF1FE451FD4F44
:101090000190F081E02DCF010895AF92BF92CF92E1
:1010A000DF92FF920F931F93DF93CF93CDB7DEB7FD
:1010B00029970FB6F894DEBF0FBECDBFF82E8B0177
:1010C0005A015CDFC8016F2D0DDE84E46F2DF4DD65
:1010D0008F2D36DF8823E1F38F2D50DFC8016F2D70
:1010E00001DE8EEB6F2DE8DD8E010F5F1F4F9AE062
:1010F000C92ED12CCC0EDD1E8F2DCBDDF8018193B6
:101100008F01EC15FD05C1F7CE0101969BDF882309
:1011100011F081E00AC09A8180E0298130E0822BC1
:10112000932BF5019183808380E029960FB6F89484
:10113000DEBF0FBECDBFCF91DF911F910F91FF900A
:10114000DF90CF90BF90AF90089580912E018823BB
:10115000A9F41092300180EF92E062E044E020E3D5
:1011600031E045DE982F80932F018091300182304D
:1011700029F4913019F08FEF80932E0184E060EF15
:1011800072E04CEE52E089DF80932F01813011F440
:1011900010922E0184E068EF72E04EEE52E07DDFA7
:1011A00080932F01813011F410922E01089584E074
:1011B0008BDE089510920903109208032898089571
:1011C00090930B0380930A03299A08952998089510
:1011D000882311F0289A08952898089585B182707F
:1011E0000895909309038093080370930D0360930F
:1011F0000C0310920F0310920E03419A089510925F
:1012000009031092080341980895299B0EC080910C
:101210000A0390910B03009741F0019790930B0301
:1012200080930A03892B09F42998809108039091EF
:101230000903009739F120910E0330910F032F5FBE
:101240003F4F30930F0320930E03419B0FC028178D
:101250003907C0F080910C0390910D03892B09F0A0
:10126000419810920F0310920E03089580910C0381
:1012700090910D032817390728F0419A10920F0317
:1012800010920E030895AEE0B0E0E8E4F9E098C2F1
:101290000D891E8986E08C831A8309838FEF9FE76F
:1012A0009E838D839E01275E3F4FCE0101966F89FD
:1012B000788DA90109D02F813885020F131FF801FD
:1012C00010822E96E4E098C2ABE0B0E0E9E6F9E0E7
:1012D00069C23C012B015A01FC01178216828381ED
:1012E00081FD03C06FEF7FEFB9C19AE0892E1E0127
:1012F0000894211C311CF3012381F20123FD859107
:1013000023FF81912F01882309F4A5C1853239F487
:1013100023FD859123FF81912F01853221F490E0F7
:10132000B301B6D1E8CF982FFF24EE249924FFE132
:10133000FF15D0F09B3269F09C3228F4903259F0BE
:10134000933291F40EC09D3249F0903369F441E03C
:1013500024C052E0F52A84E0F82A28C098E0F92A4F
:1013600025C0E0E1FE2A22C0F7FC29C0892F805366
:101370008A3070F4F6FE05C0989C902C1124980ECB
:1013800015C0E89CE02C1124E80EF0E2FF2A0EC004
:101390009E3229F4F6FC5FC140E4F42A07C09C3673
:1013A00019F450E8F52A02C0983649F4F20123FDF9
:1013B000959123FF91912F01992309F0B8CF892F9F
:1013C0008554833018F08052833038F444E050E084
:1013D000A40EB51E5FE359830FC0933631F09337E7
:1013E00079F0933509F052C01FC0F50180818983DF
:1013F00042E050E0A40EB51E610101E010E011C012
:10140000F501C080D180F6FC03C06FEF7FEF02C012
:10141000692D70E042E050E0A40EB51EC6012DD14A
:101420008C015FE7F52213C0F501C080D180F6FC86
:1014300003C06FEF7FEF02C0692D70E042E050E023
:10144000A40EB51EC6010ED18C0150E8F52AF3FE9C
:1014500006C018C080E290E0B3011AD1EA948E2D44
:1014600090E008171907B0F30DC0F601F7FC85915D
:10147000F7FE81916F0190E0B3010AD1E110EA9487
:10148000015010400115110581F7E2C0943611F0AA
:10149000993661F5F7FE08C0F5012081318142815E
:1014A000538184E090E00AC0F501808191819C0124
:1014B000442737FD4095542F82E090E0A80EB91ED6
:1014C0009FE6F92257FF09C0509540953095219528
:1014D0003F4F4F4F5F4FE0E8FE2ACA01B901A1011B
:1014E0002AE030E001D1D82ED2183FC0953729F438
:1014F0001F2D1F7E2AE030E01DC01F2D197F9F3653
:1015000061F0903720F4983509F0A5C00FC09037EE
:1015100039F0983709F09FC004C028E030E00AC0D5
:10152000106114FD146020E130E004C014FD166069
:1015300020E132E017FF08C0F501608171818281EE
:10154000938144E050E008C0F50180819181BC01A5
:1015500080E090E042E050E0A40EB51EA101C4D0AE
:10156000D82ED2188FE7F82EF122F6FE0BC05EEFD0
:10157000F522D91438F4F4FE07C0F2FC05C08FEE52
:10158000F82202C01D2D01C0192DF4FE0DC0FE0170
:10159000ED0DF11D8081803319F499EEF92208C018
:1015A0001F5FF2FE05C003C08F2D867809F01F5F14
:1015B0000F2DF3FC13C0F0FE0EC01E1510F09D2C75
:1015C0000AC09D2C9E0C911A1E2D05C080E290E051
:1015D000B3015ED01F5F1E15C8F304C01E1510F4C2
:1015E000E11A01C0EE2404FF0EC080E390E0B301D5
:1015F0004FD002FF1BC001FD03C088E790E00EC082
:1016000088E590E00BC0802F867881F001FF02C052
:101610008BE201C080E2F7FC8DE290E0B30138D0AC
:1016200005C080E390E0B30133D09A94D914C8F395
:10163000DA94F101ED0DF11D808190E0B30128D025
:10164000DD20B1F705C080E290E0B30121D0EA943B
:10165000EE20C9F750CEF30166817781CB012B963E
:10166000E2E1BCC0FC010590615070400110D8F768
:10167000809590958E0F9F1F0895FC0161507040DA
:1016800001900110D8F7809590958E0F9F1F0895B7
:101690000F931F93CF93DF938C01EB018B8181FF1D
:1016A0001BC082FF0DC02E813F818C819D81281738
:1016B000390764F4E881F9810193F983E88306C06E
:1016C000E885F985802F0995892B31F48E819F81DA
:1016D00001969F838E8302C00FEF1FEFC801DF9139
:1016E000CF911F910F910895FA01AA27283051F147
:1016F000203181F1E8946F936E7F6E5F7F4F8F4F43
:101700009F4FAF4FB1E03ED0B4E03CD0670F781FA1
:10171000891F9A1FA11D680F791F8A1F911DA11D86
:101720006A0F711D811D911DA11D20D009F46894BF
:101730003F912AE0269F11243019305D3193DEF667
:10174000CF010895462F4770405D4193B3E00FD01D
:10175000C9F7F6CF462F4F70405D4A3318F0495D08
:1017600031FD4052419302D0A9F7EACFB4E0A695EB
:101770009795879577956795BA95C9F7009761050D
:10178000710508959B01AC010A2E06945795479563
:1017900037952795BA95C9F7620F731F841F951F58
:1017A000A01D08952F923F924F925F926F927F9269
:1017B0008F929F92AF92BF92CF92DF92EF92FF9261
:1017C0000F931F93CF93DF93CDB7DEB7CA1BDB0B0D
:1017D0000FB6F894DEBF0FBECDBF09942A883988B2
:1017E00048885F846E847D848C849B84AA84B984B9
:1017F000C884DF80EE80FD800C811B81AA81B981C5
:10180000CE0FD11D0FB6F894DEBF0FBECDBFED01D8
:061810000895F894FFCFDB
:10181600436F6E74726F6C6C6572312C20766572D4
:1018260073696F6E20312E302E310D0A004144430C
:08183600363D25690D0A000092
:00000001FF
