:100000000C9434010C9451010C9451010C94510145
:100010000C9451010C9451010C9451010C94510118
:100020000C9451010C9451010C9451010C94400A10
:100030000C9451010C9451010C9451010C945101F8
:100040000C9451010C9451010C94D5090C94AE09F7
:100050000C9451010C94D7010C9451010C94510152
:100060000C9451010C94510100C1814001C08041A8
:1000700001C0804100C1814001C0804100C1814078
:1000800000C1814001C0804101C0804100C1814068
:1000900000C1814001C0804100C1814001C0804158
:1000A00001C0804100C1814001C0804100C1814048
:1000B00000C1814001C0804100C1814001C0804138
:1000C00001C0804100C1814000C1814001C0804128
:1000D00001C0804100C1814001C0804100C1814018
:1000E00000C1814001C0804101C0804100C1814008
:1000F00000C1814001C0804100C1814001C08041F8
:1001000001C0804100C1814000C1814001C08041E7
:1001100001C0804100C1814001C0804100C18140D7
:1001200000C1814001C0804100C1814001C08041C7
:1001300001C0804100C1814001C0804100C18140B7
:1001400000C1814001C0804101C0804100C18140A7
:1001500000C1814001C0804100C1814001C0804197
:1001600001C0804100C1814000C0C101C30302C27F
:10017000C60607C705C5C404CC0C0DCD0FCFCE0EE7
:100180000ACACB0BC90908C8D81819D91BDBDA1A57
:100190001EDEDF1FDD1D1CDC14D4D515D71716D6C7
:1001A000D21213D311D1D010F03031F133F3F23237
:1001B00036F6F737F53534F43CFCFD3DFF3F3EFEA7
:1001C000FA3A3BFB39F9F83828E8E929EB2B2AEA17
:1001D000EE2E2FEF2DEDEC2CE42425E527E7E62687
:1001E00022E2E323E12120E0A06061A163A3A262F7
:1001F00066A6A767A56564A46CACAD6DAF6F6EAE67
:10020000AA6A6BAB69A9A86878B8B979BB7B7ABAD6
:10021000BE7E7FBF7DBDBC7CB47475B577B7B67646
:1002200072B2B373B17170B05090915193535292B6
:1002300096565797559594549C5C5D9D5F9F9E5E26
:100240005A9A9B5B99595898884849894B8B8A4A96
:100250004E8E8F4F8D4D4C8C448485458747468606
:10026000824243834181804011241FBECFEFD4E0FE
:10027000DEBFCDBF11E0A0E0B1E0E0E7F5E102C0F4
:1002800005900D92A433B107D9F712E0A4E3B1E0D1
:1002900001C01D92AB38B107E1F70E9474020C94C3
:1002A000B60A0C9400001092B20086E08093B10070
:1002B00083E28093B000089581E0089581E008957D
:1002C000EF92FF920F931F93CF93DF938C017B01EB
:1002D000EA01CA01860F971F069710F087E02EC02B
:1002E000222321F580E090E00E94D902809335011D
:1002F00010923601F701EE0FFF1FEB5CFE4F0AC0B4
:1003000090818181D8018C9311969C930E5F1F4F31
:10031000219732962097A1F710C0D80111968C91A1
:10032000808311820E5F1F4F219705C0FB01EE0FE6
:10033000FF1FEB5CFE4F209781F780E0DF91CF91AC
:100340001F910F91FF90EF900895EF92FF920F93FE
:100350001F93CF93DF938C017B01EA01CA01860FC3
:10036000971F069710F087E01BC080E090E00E9486
:10037000D9028093350110923601F701EE0FFF1F6D
:10038000EB5CFE4F0AC08181D8018C93808111966D
:100390008C930E5F1F4F219732962097A1F780E034
:1003A000DF91CF911F910F91FF90EF9008951F92D1
:1003B0000F920FB60F9211242F933F934F935F9399
:1003C0006F937F938F939F93AF93BF93EF93FF931D
:1003D000809134018130B9F0813020F0823009F011
:1003E00072C043C0209179008FEF90E0821B910989
:1003F00090933A018093390180917C0081608093D1
:100400007C0081E02FC08091790080933B011092A5
:100410003C0180E090E00E94D902682F70E0709368
:1004200036016093350180913B0190913C018E36FD
:10043000910558F461FD09C06260709336016093C4
:10044000350180E090E00E94D10280917C008260C2
:1004500080937C0080917C008E7F80937C008091D3
:1004600034018F5F8093340129C08091790080939B
:100470003D0110923E0180E090E00E94D902682F79
:1004800070E0709336016093350180913D01909149
:100490003E018C34910558F060FD09C06160709395
:1004A00036016093350180E090E00E94D102809196
:1004B0007C008D7F80937C001092340180917A00C3
:1004C000806480937A00FF91EF91BF91AF919F91EB
:1004D0008F917F916F915F914F913F912F910F90ED
:1004E0000FBE0F901F901895EF920F931F930E94CD
:1004F000C60280E090E00E94D902809335011092FC
:100500003601529A80E061E040E000E016E920E028
:1005100030E052E0E52E0E94ED0384E361E040E02C
:1005200051E023E030E00E941E0778940E943703D8
:100530001092B20086E08093B10083E28093B00015
:100540001092B4000E945A0380E090E00E94D90209
:10055000609135017091360190E08617970721F080
:1005600080E090E00E94D10280E090E00E94D902F9
:10057000882351F48091370190913801009721F040
:100580008093B400539ADECF5398DCCF80E68093FB
:100590007C00EAE7F0E08FE88083808180648083DC
:1005A0000895F999FECF92BD81BD60BDFA9AF99A7E
:1005B0000895F999FECF92BD81BDF89A80B508954E
:1005C000482F181614F082E00895F894611571050B
:1005D000F9F0E5E0F1E080E090E020813181211543
:1005E000310519F02617370769F4FC01EE0FFF1FDC
:1005F000E80FF91FEC5FFE4F4083728361834097E1
:1006000011F51FC0019633968031910531F719C05D
:10061000E4E0F1E020E030E08081841759F4F90152
:10062000EE0FFF1FE20FF31FEC5FFE4F10821282EE
:10063000118209C02F5F3F4F33962031310561F79A
:1006400002C084E001C080E07894089580910301A5
:10065000813011F086E00895E0915001F091510150
:10066000309711F480E00895099580E00895809115
:100670000301813011F086E00895E0914A01F09184
:100680004B0109951092030180E0089580910301C8
:10069000882351F4E0914C01F0914D01099581E0DE
:1006A0008093030180E00895813011F086E0089581
:1006B00080E00895DF93CF930F92CDB7DEB780919E
:1006C0000301882311F086E084C0CE0101960E94C8
:1006D0003C09813009F07CC09981923009F1933056
:1006E00009F471C0913009F073C0E0914E01F091AE
:1006F0004F0183E491E064E471E040E451E0099546
:10070000882309F065C090914301809146019817B4
:1007100019F0992309F05CC082E00E94350958C0A5
:10072000A0914401B09145013C91309342018093E6
:100730003F01E4E0F1E080E090E020812223C1F07D
:10074000231789F4FC01EE0FFF1FE80FF91FEC5F80
:10075000FE4F0180F281E02DCD0160E471E009954A
:1007600080933F0105C0019633968031910529F7AA
:1007700080914301882361F190913F01992399F081
:10078000E0914401F09145018091420180688083AD
:10079000E0914401F0914501918382E090E09093D3
:1007A0004101809340016091440170914501409165
:1007B000400150914101E0914801F091490180913F
:1007C0004601099505C088E592E00197F1F75A982E
:1007D00080E00F90CF91DF910895EF920F931F93D8
:1007E000982F862F8150873F08F049C060934601BB
:1007F000992309F044C082EF97E090934B018093D6
:100800004A0185E697E090934D0180934C018DEF6E
:1008100097E0909349018093480183E598E0909395
:100820004F0180934E01109251011092500189EABC
:1008300097E090938601809385018EE697E09093F0
:100840008201809381018EE497E0909384018093EC
:100850008301862F642FA90198010E2D0E9488081C
:10086000182F882369F40E943109882311F413E0BA
:1008700007C01092470181E08093030101C012E09C
:10088000812F1F910F91EF900895DC013FEF2FEF23
:1008900011C08D91422F482750E0CA0188599F4FBF
:1008A000FC012491232748595E4FFA01849161503D
:1008B0007040382F6115710561F7932F80E030E0AB
:1008C000282B392BC9010895CF93DF93FC01EB014D
:1008D000888199810697C0F1A181B281938180E0DE
:1008E0002481422F50E0482B592B3581CA01877053
:1008F0009070BA0123E0769567952A95E1F7892BE8
:1009000019F0262F2F5F01C0262FCA010197805BA7
:100910009740D0F42317C1F47A2F60E08B2F90E03A
:10092000682B792B6F5F7F4FCF01069621E00E94E5
:100930005C01882319F00E94220907C085E090E03D
:100940009983888380E001C083E0DF91CF9108958F
:10095000DF93CF9300D0CDB7DEB7DC01FB01808100
:100960009181059761F511962C91119712963C9102
:10097000129714968C911497882309F513969C91DD
:10098000892F81508E3FD8F01A829F3F19F481E061
:10099000898301C01982722F60E0832F90E0682B59
:1009A000792B6F5F7F4FCE01019641E050E021E04F
:1009B0000E945C01882321F00E94220901C083E08B
:1009C0000F900F90CF91DF9108950F931F93CF93C6
:1009D000DF93FC01EB0188819981059709F047C0FD
:1009E0000181DF0112963281938180E02481422FC0
:1009F00050E0482B592BCA0101978F5C9740B8F5FE
:100A00001982188281E08083888199810196998377
:100A10008883CA0187709070BA0113E07695679554
:100A20001A95E1F7892B19F0162F1F5F01C0162FB9
:100A3000118388819981019699838883702F60E062
:100A4000832F90E0682B792B6F5F7F4FCD0120E0E3
:100A50000E945C01882319F00E94220909C0888144
:100A60009981810F911D9983888380E001C083E083
:100A7000DF91CF911F910F9108950F931F93CF9303
:100A8000DF93FC01EB0188819981059709F046C04D
:100A90000181DF0112963281938180E02481422F0F
:100AA00050E0482B592BCA0101978F5C9740B0F555
:100AB0001982188282E080838881998101969983C6
:100AC0008883CA0187709070BA0123E07695679594
:100AD0002A95E1F7892B19F0162F1F5F01C0162FF9
:100AE000118388819981019699838883702F60E0B2
:100AF000832F90E0682B792B6F5F7F4FCD010E9491
:100B00005E01882319F00E94220909C08881998119
:100B1000810F911D9983888380E001C083E0DF917C
:100B2000CF911F910F9108958F929F92AF92BF9294
:100B3000CF92DF92EF92FF920F931F93CF93DF93A9
:100B4000EC018B01FB01808191810A9708F463C05D
:100B5000898022E0A22EB12CAC0EBD1E9A809B8112
:100B600080E02C81E22EFF24E82AF92AED81FE8123
:100B70006F8128857985C70101978D37910508F028
:100B80004FC0962F80E0422F50E0482B592B411543
:100B9000510509F445C04A37510508F041C09A0192
:100BA000220F331F872F90E028173907C9F57E2FB2
:100BB00060E08F2F90E0682B792BCE010A9621E020
:100BC0000E946001882349F5F8011182108287E1B3
:100BD0008883808191810196918380836701CC0C09
:100BE000DD1CC98280819181019691838083782D5B
:100BF00060E0892D90E0682B792BC501A70120E0EA
:100C00000E946001882349F4F801808191818C0D54
:100C10009D1D9183808380E004C00E94220901C051
:100C200083E0DF91CF911F910F91FF90EF90DF90C4
:100C3000CF90BF90AF909F908F9008950F931F9388
:100C4000CF93DF93FC01EB01888199810597B1F582
:100C5000B1819F012E5F3F4FA2818481482F50E0D8
:100C6000CA0101978D37910548F51982188283E0F2
:100C70008083888199810196998388838A01000FF6
:100C8000111F0183888199810196998388837B2F25
:100C900060E08A2F90E0682B792BC90120E00E9448
:100CA0006001882319F00E94220909C08881998176
:100CB000800F911F9983888380E001C083E0DF91DA
:100CC000CF911F910F910895CF93DF93FC01EB011A
:100CD00088819981069750F13181A281938180E0CA
:100CE0002481422F50E0482B592B2581CA010197BE
:100CF00088379105D8F4CA01880F991F2817B1F4D5
:100D0000732F60E08A2F90E0682B792BCF01069635
:100D100021E00E946001882319F00E94220907C087
:100D200085E090E09983888380E001C083E0DF91D3
:100D3000CF910895DC01FB0180819181059711F02D
:100D400083E0089511967C91119760E012968C9142
:100D5000129790E0682B792BCD01039641E050E08B
:100D600021E00E946001882311F00E942209089569
:100D7000FF920F931F93CF93DF93FC01EB018881C8
:100D800099810597C1F5F180DF0112963281938137
:100D900080E02481422F50E0482B592BCA01019753
:100DA0008C37910540F51982188284E08083888110
:100DB00099810196998388838A01000F111F01830D
:100DC000888199810196998388837F2D60E0832FA4
:100DD00090E0682B792BCD010E94A501882319F0A2
:100DE0000E94220909C088819981800F911F9983EF
:100DF000888380E001C083E0DF91CF911F910F9144
:100E0000FF9008950F931F938B019C012F5F3F4F1D
:100E1000E2E5F1E04091720150917301C901BF0117
:100E20000E94AD0A80917201909173010196F801C0
:100E30009183808380E01F910F910895CF93DF937A
:100E4000E82FE901C9010296809710F084E023C0E1
:100E5000E0935201662311F480E001C08FEF80938C
:100E6000530182E090E09093730180937201209788
:100E700089F024E531E0C901BA01AE010E94AD0A52
:100E800080917201909173018C0F9D1F909373015B
:100E90008093720180E0DF91CF9108951F9380913C
:100EA0007501882321F0823021F010E006C080E037
:100EB00001C081E00E943509182F0E94160A81E0C6
:100EC00080937501812F1F910895F89480E060E070
:100ED0000E9448090E94160A789408951F938091F1
:100EE0007401882319F0813029F406C081E060E0A4
:100EF0000E94480910E02AC0809178019091790100
:100F00000197D1F0E0917601F091770180810E9404
:100F1000A3098091760190917701019690937701D2
:100F20008093760180917801909179010197909357
:100F3000790180937801DECF83E00E943509182F74
:100F400081E060E00E94480910927401812F1F9196
:100F50000895DF93CF930F92CDB7DEB7CE01019600
:100F60000E94A80980917501813039F0813098F193
:100F70008230B9F0833089F52EC010927B01109237
:100F80007A0180917A0190917B012981FC01E557DA
:100F9000FE4F2083019690937B0180937A0182E03B
:100FA00018C080917A0190917B018F3F910509F0E3
:100FB00078F480917A0190917B012981FC01E557B9
:100FC000FE4F2083019690937B0180937A0103C0AA
:100FD00083E0809375010E94FC0980E00F90CF911F
:100FE000DF910895F8941092750181E060E00E940D
:100FF00048090E94FC09789408951F93282FF894BB
:1010000010917501113011F085E04AC0FB01319754
:10101000F0937701E093760181E090E0909379017D
:101020008093780120838091780190917901840FD9
:10103000951F909379018093780160917801709168
:101040007901CF010E944504209178013091790106
:10105000F901E557FE4F80832F5F3F4F30937901B1
:10106000209378012091780130917901F901E557B9
:10107000FE4F90832F5F3F4F30937901209378018B
:1010800080917801909179010196909379018093F4
:1010900078011093740180E061E00E94480980E0CB
:1010A00078941F910895EF92FF920F931F93CF931F
:1010B000DF93EC017B018A01F89480917A01909191
:1010C0007B010497E0F060917A0170917B018BE8DD
:1010D00091E00E944504892B91F480918B018883D3
:1010E00080917A0190917B010397F801918380832D
:1010F0008CE891E0F7019183808380E001C085E076
:101100007894DF91CF911F910F91FF90EF90089508
:10111000CF92DF92EF92FF920F93862F69017A01AF
:10112000F894BA01A90128E00E946409813009F508
:1011300081E0C8168BE4D80680E0E80680E0F80677
:1011400028F083E290E0A0E0B0E00DC0CC0CDD1C04
:10115000EE1CFF1C60EA7FE787E190E0A7019601A3
:101160000E948B0AC9010E94220A813011F480E09A
:1011700001C083E078940F91FF90EF90DF90CF90C3
:1011800008950F931F93CF93DF9330E0DB0153E07B
:10119000B695A7955A95E1F767707070E1E0F0E0B9
:1011A00002C0EE0FFF1F4A95E2F731978C010A0F3C
:1011B0001B1FE801488150E01196A80FB91F9C91B0
:1011C00080E0482B592B062E02C0EE0FFF1F0A9419
:1011D000E2F7E095F0954E235F2302C0220F331F04
:1011E0006A95E2F7422B532B48835C93DF91CF91B2
:1011F0001F910F910895FB01B3E0F695E795BA951D
:10120000E1F7DC01AE0FBF1F2C9130E011969C91ED
:1012100080E0822B932BA3E0EE0FFF1FAA95E1F74E
:101220006E1B7F0B02C0969587956A95E2F721E0C9
:1012300030E002C0220F331F4A95E2F721503040C0
:1012400082230895813029F0813028F0873039F4E5
:1012500004C082E0089580E0089586E0089584E067
:10126000089510927D0181E0089591E090937D01B1
:1012700080937C0181E00895FC0180917D018823A9
:1012800031F080917C01808310927D0181E008958E
:101290009091C10098609093C100882321F08091C3
:1012A000C100806903C08091C1008F768093C10026
:1012B000662321F08091C100886203C08091C10043
:1012C0008F7D8093C1000895CF92DF92EF92FF92BD
:1012D0000F931F936A017B01122F84E0CC0CDD1C5D
:1012E000EE1CFF1C8A95D1F760E072E18AE790E07E
:1012F000A70196010E948B0A215030403093C5000F
:101300002093C400013031F0023011F490E203C0A8
:1013100090E001C090E3173021F0183019F4966086
:1013200001C094608091C200982B9093C20081E02C
:1013300061E00E94480981E01F910F91FF90EF90BA
:10134000DF90CF9008955A9A8093C60081E0089567
:10135000FC018091C600808381E008951F920F9266
:101360000FB60F9211242F933F934F935F936F9378
:101370007F938F939F93AF93BF93EF93FF93E091EE
:101380008101F09182010995FF91EF91BF91AF9199
:101390009F918F917F916F915F914F913F912F918D
:1013A0000F900FBE0F901F9018951F920F920FB6BF
:1013B0000F9211242F933F934F935F936F937F93DB
:1013C0008F939F93AF93BF93EF93FF93E09185012A
:1013D000F09186010995FF91EF91BF91AF919F9197
:1013E0008F917F916F915F914F913F912F910F90CE
:1013F0000FBE0F901F9018951092850010928400D8
:1014000020917E0130917F012115310549F08091B5
:101410006F00826080936F00309389002093880072
:10142000809181008560809381000895E1E8F0E07B
:1014300080818A7F8083EFE6F0E080818D7F8083EA
:10144000B19A0895A0E0B0E0BC01CD0124E83EE1EE
:1014500040E050E00E946C0A20E23EE440E050E0B0
:101460000E948B0A30937F0120937E0110928000AE
:1014700010928100109282000E94160A81E0089565
:101480001F920F920FB60F9211242F933F934F93F9
:101490005F936F937F938F939F93AF93BF93EF93DC
:1014A000FF93E0918301F09184010995FF91EF9101
:1014B000BF91AF919F918F917F916F915F914F916C
:1014C0003F912F910F900FBE0F901F9018951BB852
:1014D0008AB1806F8AB90895629FD001739FF0012D
:1014E000829FE00DF11D649FE00DF11D929FF00DB4
:1014F000839FF00D749FF00D659FF00D9927729FEB
:10150000B00DE11DF91F639FB00DE11DF91FBD0175
:10151000CF0111240895A1E21A2EAA1BBB1BFD01C5
:101520000DC0AA1FBB1FEE1FFF1FA217B307E407C2
:10153000F50720F0A21BB30BE40BF50B661F771F1A
:10154000881F991F1A9469F76095709580959095FA
:101550009B01AC01BD01CF010895FB01DC0102C07C
:1015600001900D9241505040D8F70895F894FFCF64
:10157000AABBCC0211020704B806031E06106406BB
:10158000069A0617940501E50405A8040F640402F1
:101590003D05000000000000000000000000000009
:0415A0000000000047
:00000001FF
